:100000000C945D000C9485000C9485000C94850084
:100010000C9485000C9485000C9485000C9485004C
:100020000C9485000C9485000C9485000C9485003C
:100030000C9485000C9485000C9485000C9485002C
:100040000C94E5030C9485000C94B3030C948D037D
:100050000C9485000C9485000C9485000C9485000C
:100060000C9485000C9485000000000024002700FB
:100070002A0000000000250028002B0004040404CE
:100080000404040402020202020203030303030342
:10009000010204081020408001020408102001021F
:1000A00004081020000000080002010000030407FB
:1000B0000000000000000000030611241FBECFEF67
:1000C000D8E0DEBFCDBF11E0A0E0B1E0EEE7F0E1A7
:1000D00002C005900D92A632B107D9F722E0A6E240
:1000E000B1E001C01D92AC30B207E1F710E0CDE500
:1000F000D0E004C02197FE010E943708CC35D1071B
:10010000C9F70E942F040C9430060C940000E1EB18
:10011000F0E02491EDE9F0E09491E9E8F0E0E49179
:10012000EE23C9F0222339F0233001F1A8F4213065
:1001300019F1223029F1F0E0EE0FFF1FEE58FF4FCA
:10014000A591B4912FB7F894EC91811126C09095A8
:100150009E239C932FBF08952730A9F02830C9F023
:10016000243049F7209180002F7D03C0209180002A
:100170002F7720938000DFCF24B52F7724BDDBCFEE
:1001800024B52F7DFBCF2091B0002F772093B000B6
:10019000D2CF2091B0002F7DF9CF9E2BDACFAF9236
:1001A000BF92CF92DF92EF92FF920F931F93CF9364
:1001B000DF936C017B018B01040F151FEB015E01C6
:1001C000AE18BF08C017D10759F06991D601ED915B
:1001D000FC910190F081E02DC6010995892B79F7FA
:1001E000C501DF91CF911F910F91FF90EF90DF90AC
:1001F000CF90BF90AF900895AB01BC018FE691E026
:100200000C94CF00FC01538D448D252F30E0842FBA
:1002100090E0821B930B541710F0CF96089501972E
:100220000895FC01918D828D981761F0A28DAE0F1B
:10023000BF2FB11D5D968C91928D9F5F9F73928FA2
:1002400090E008958FEF9FEF0895AF92BF92CF9205
:10025000DF92EF92FF920F931F93CF93DF938C0166
:100260005B018FB7F894C0906B01D0906C01E09067
:100270006D01F0906E018FBF88EEC80E83E0D81E2E
:10028000E11CF11CD0E0C0E08FE691E00E9411017A
:100290008F3FA1F0F801EC0FFD1F80832196CA1556
:1002A000DB0590F3CE01DF91CF911F910F91FF906D
:1002B000EF90DF90CF90BF90AF9008952FB7F89454
:1002C00080916B0190916C01A0916D01B0916E01D4
:1002D0002FBFC816D906EA06FB0608F7E3CFFC01D4
:1002E000918D828D981731F0828DE80FF11D858DEB
:1002F00090E008958FEF9FEF0895FC01918D228D7E
:10030000892F90E0805C9F4F821B91098F73992702
:100310000895FC01A48DA80FB92FB11DA35ABF4F9A
:100320002C91848D90E001968F739927848FA689F4
:10033000B7892C93A089B1898C91837080648C9348
:10034000938D848D981306C00288F389E02D8081F7
:100350008F7D80830895EF92FF920F931F93CF9329
:10036000DF93EC0181E0888F9B8D8C8D98131AC0F0
:10037000E889F989808185FF15C09FB7F894EE89D7
:10038000FF896083E889F989808183708064808334
:100390009FBF81E090E0DF91CF911F910F91FF907F
:1003A000EF900895F62E0B8D10E00F5F1F4F0F7327
:1003B0001127E02E8C8D8E110CC00FB607FCFACFE2
:1003C000E889F989808185FFF5CFCE010E948901F6
:1003D000F1CFEB8DEC0FFD2FF11DE35AFF4FF082B3
:1003E0009FB7F8940B8FEA89FB8980818062CFCF19
:1003F000CF93DF93EC01888D8823B9F0AA89BB895C
:10040000E889F9898C9185FD03C0808186FD0DC046
:100410000FB607FCF7CF8C9185FFF2CF808185FF67
:10042000EDCFCE010E948901E9CFDF91CF910895F0
:100430008FE691E00E947D0121E0892B09F420E004
:10044000822F089580E090E0892B29F00E94180205
:1004500081110C94000008958E3008F08E50877042
:10046000806480937C0080917A00806480937A001D
:1004700080917A0086FDFCCF809178009091790080
:1004800008953FB7F8948091270190912801A09199
:100490002901B0912A0126B5A89B05C02F3F19F06C
:1004A0000196A11DB11D3FBFBA2FA92F982F8827F4
:1004B000BC01CD01620F711D811D911D42E0660FCF
:1004C000771F881F991F4A95D1F708958F929F92A1
:1004D000AF92BF92CF92DF92EF92FF926B017C01BD
:1004E0000E9441024B015C01C114D104E104F104FA
:1004F000B9F00E944102681979098A099B09683E8E
:1005000073408105910580F321E0C21AD108E1080A
:10051000F10888EE880E83E0981EA11CB11CE4CF80
:10052000FF90EF90DF90CF90BF90AF909F908F9013
:100530000895CF92DF92EF92FF920F931F93CF9384
:10054000DF93EB017B012CE0E20EF11C8B016C01CF
:10055000C61AD70AC601800F911F0E943306F80100
:1005600081938F01EE15FF05A9F7CE01DF91CF91A1
:100570001F910F91FF90EF90DF90CF9008950F9310
:100580001F93CF93DF93CDB7DEB760970FB6F89484
:10059000DEBF0FBECDBF8C018CE0E0E0F1E0DE01FC
:1005A000119601900D928A95E1F7BE016F5F7F4F22
:1005B0008CE0282F209FC001219F900D11240E94C4
:1005C00099028AE19FEE9E878D8785E18F87088B50
:1005D00064E070E0CE010D960E94FC006CE070E0DB
:1005E000CE0101960E94FC0060960FB6F894DEBF23
:1005F0000FBECDBFDF91CF911F910F9108952F9224
:100600003F924F925F926F927F928F929F92AF92A2
:10061000BF92CF92DF92EF92FF920F931F93CF93EF
:10062000DF93CDB7DEB72C970FB6F894DEBF0FBEC1
:10063000CDBF8CE0E0E0F1E0DE01119601900D927B
:100640008A95E1F78BE4C82E81E0D82E9BE2292E13
:1006500091E0392E10E000E0BE016F5F7F4FC801CE
:100660000E94990289849A84AB84BC84EB80FC80CC
:100670002D813E814F815885C501B4010E944906F4
:100680002B013C0189819A81B701681B790B90E0AD
:1006900080E00E9428079B01AC01C301B2010E94C7
:1006A000B6062B013C01F601419251926192719282
:1006B0006F01B70190E080E00E942807A30192013A
:1006C0000E94B6079B01AC01C501B4010E94490616
:1006D000F10161937193819391931F01045F1F4F07
:1006E0000036110509F0B8CF2C960FB6F894DEBF8E
:1006F0000FBECDBFDF91CF911F910F91FF90EF9073
:10070000DF90CF90BF90AF909F908F907F906F9031
:100710005F904F903F902F9008951F920F920FB6C9
:100720000F9211242F933F934F935F936F937F9377
:100730008F939F93AF93BF93EF93FF938FE691E0D7
:100740000E948901FF91EF91BF91AF919F918F918D
:100750007F916F915F914F913F912F910F900FBEBD
:100760000F901F9018951F920F920FB60F921124A1
:100770002F938F939F93EF93FF93E0917F01F091DD
:1007800080018081E0918501F091860182FD1BC08E
:100790009081809188018F5F8F73209189018217EA
:1007A00041F0E0918801F0E0E159FE4F958F809390
:1007B0008801FF91EF919F918F912F910F900FBE24
:1007C0000F901F9018958081F4CF1F920F920FB653
:1007D0000F9211242F933F938F939F93AF93BF93C7
:1007E00080916B0190916C01A0916D01B0916E01AF
:1007F0003091260123E0230F2D3758F50196A11DD6
:10080000B11D2093260180936B0190936C01A093FE
:100810006D01B0936E018091270190912801A09104
:100820002901B0912A010196A11DB11D80932701D4
:1008300090932801A0932901B0932A01BF91AF9111
:100840009F918F913F912F910F900FBE0F901F900E
:10085000189526E8230F0296A11DB11DD2CFCF9384
:10086000DF93CDB7DEB766970FB6F894DEBF0FBE45
:10087000CDBF789484B5826084BD84B5816084BD29
:1008800085B5826085BD85B5816085BD80916E002E
:10089000816080936E00109281008091810082605F
:1008A000809381008091810081608093810080919C
:1008B00080008160809380008091B100846080938B
:1008C000B1008091B00081608093B00080917A0087
:1008D000846080937A0080917A00826080937A00AD
:1008E00080917A00816080937A0080917A0080689C
:1008F00080937A001092C100E0917F01F091800115
:1009000082E08083E0917F01F09180011082E0918C
:100910007B01F0917C011082E0917D01F0917E01DC
:1009200080E1808310928701E0918301F09184013E
:1009300086E08083E0918101F09182018081806175
:100940008083E0918101F0918201808188608083C1
:10095000E0918101F0918201808180688083E09143
:100960008101F091820180818F7D80830E94FF024E
:100970008FE691E00E94F801EDE9F0E02491E9E8CA
:10098000F0E08491882399F090E0880F991FFC0192
:10099000E859FF4FA591B491FC01EE58FF4F8591A6
:1009A00094918FB7F894EC91E22BEC938FBF5EE1BA
:1009B000452E512C4AE1E42E4FEEF42E30E0632E0A
:1009C00030E0732EFA8AE98A1B8A1C8A8FE691E04E
:1009D0000E947D01892B09F164E070E0CE0141960F
:1009E0000E9425010497F9F489899A898A319F4EDA
:1009F000D1F481E00E94870064E670E080E090E03E
:100A00000E94660280E00E9487008B89843109F48D
:100A1000BCC09CF4823109F463C064E670E080E0FD
:100A200090E00E9466026114710461F20E94180253
:100A3000882321F20E940000BDCF863109F4ACC0AA
:100A4000873159F7BC880B2D0B2C000C110B198228
:100A50001A821B821C821E821D8285E190E0083072
:100A6000110538F4F801E25EFE4F8081082E000C7B
:100A7000990B0E942C029E838D836801CC0CDD1C97
:100A8000CC0CDD1C8601055B1E4FBC0190E080E0B4
:100A90000E942807F80120813181428153810E9400
:100AA000B607F601E55DFE4F208131814281538119
:100AB0000E944A0669837A838B839C83FE86ED8637
:100AC000F8E1FF87B88A64E070E0CE010D960E94DD
:100AD000FC0066E070E0CE0101960E94FC009DCF14
:100AE0003C8881E00E9487005E8A4D8A1E861D86B2
:100AF00062E070E0CE0145960E942501029709F060
:100B00008CCFD12CC12C10E000E0A32C032C000CC6
:100B1000BB08C501825E9E4F4C016D897E89C61659
:100B2000D706CCF485E190E098E0A916B10428F44A
:100B3000F4018081082E000C990B0E942C02080FF2
:100B4000191F68EE73E080E090E00E946602FFEFFC
:100B5000CF1ADF0AE2CFFA82E98223E12B833C82BB
:100B6000C8010E9423087E876D8764E070E0CE0193
:100B700001960E94FC0062E070E0CE010D960E949A
:100B8000FC0080E00E94870048CF8C89082E000C72
:100B9000990B0E94BF0241CF3C888CE0E0E0F1E07D
:100BA000DE01119601900D928A95E1F76CE070E0FC
:100BB000CE0101960E9425010C9709F02ECF832DBE
:100BC0009CE0890240011124FE0131966F0110E082
:100BD00000E0F60121906F015401A00EB11EC50185
:100BE0000E943306281621F0622DC5010E943B06A3
:100BF0000F5F1F4F0C30110561F70E94FF02832D1C
:100C0000330C990BC6CFEFE6F1E01382128288EE27
:100C100093E0A0E0B0E084839583A683B78380E16E
:100C200091E09183808385EC90E09587848784ECC4
:100C300090E09787868780EC90E0918B808B81ECA9
:100C400090E0938B828B82EC90E0958B848B86EC8A
:100C500090E0978B868B118E128E138E148E0895D2
:100C6000F8940C943D08F999FECF92BD81BDF89A95
:100C7000992780B50895262FF999FECF1FBA92BD06
:100C800081BD20BD0FB6F894FA9AF99A0FBE01966D
:100C900008955058BB27AA270E9461060C947C0730
:100CA0000E946E0738F00E94750720F039F49F3FCC
:100CB00019F426F40C946B070EF4E095E7FB0C9402
:100CC0006507E92F0E948D0758F3BA17620773076B
:100CD0008407950720F079F4A6F50C94AF070EF47D
:100CE000E0950B2EBA2FA02D0B01B90190010C013C
:100CF000CA01A0011124FF27591B99F0593F50F454
:100D0000503E68F11A16F040A22F232F342F4427AB
:100D1000585FF3CF469537952795A795F0405395A3
:100D2000C9F77EF41F16BA0B620B730B840BBAF073
:100D30009150A1F0FF0FBB1F661F771F881FC2F7DE
:100D40000EC0BA0F621F731F841F48F487957795F2
:100D50006795B795F7959E3F08F0B0CF9395880FAC
:100D600008F09927EE0F9795879508950E94CA0677
:100D70000C947C070E94750758F00E946E0740F0A3
:100D800029F45F3F29F00C94650751110C94B007CA
:100D90000C946B070E948D0768F39923B1F35523D8
:100DA00091F3951B550BBB27AA276217730784077E
:100DB00038F09F5F5F4F220F331F441FAA1FA9F314
:100DC00035D00E2E3AF0E0E832D091505040E69502
:100DD000001CCAF72BD0FE2F29D0660F771F881F63
:100DE000BB1F261737074807AB07B0E809F0BB0B56
:100DF000802DBF01FF2793585F4F3AF09E3F51056A
:100E000078F00C9465070C94B0075F3FE4F3983ECC
:100E1000D4F3869577956795B795F7959F5FC9F752
:100E2000880F911D9695879597F90895E1E0660FD3
:100E3000771F881FBB1F621773078407BA0720F04C
:100E4000621B730B840BBA0BEE1F88F7E0950895B5
:100E5000E89409C097FB3EF4909580957095619554
:100E60007F4F8F4F9F4F9923A9F0F92F96E9BB270A
:100E70009395F695879577956795B795F111F8CF86
:100E8000FAF4BB0F11F460FF1BC06F5F7F4F8F4FF1
:100E90009F4F16C0882311F096E911C0772321F0E7
:100EA0009EE8872F762F05C0662371F096E8862F7F
:100EB00070E060E02AF09A95660F771F881FDAF7D6
:100EC000880F9695879597F9089597F99F6780E819
:100ED00070E060E008959FEF80EC089500240A948C
:100EE0001616170618060906089500240A94121605
:100EF0001306140605060895092E0394000C11F438
:100F0000882352F0BB0F40F4BF2B11F460FF04C0E4
:100F10006F5F7F4F8F4F9F4F089557FD9058440F3D
:100F2000551F59F05F3F71F04795880F97FB991F48
:100F300061F09F3F79F08795089512161306140605
:100F4000551FF2CF4695F1DF08C016161706180692
:100F5000991FF1CF86957105610508940895E8946D
:100F6000BB2766277727CB0197F908950E94C90709
:100F70000C947C070E946E0738F00E94750720F0E1
:100F8000952311F00C9465070C946B0711240C94B5
:100F9000B0070E948D0770F3959FC1F3950F50E045
:100FA000551F629FF001729FBB27F00DB11D639F1B
:100FB000AA27F00DB11DAA1F649F6627B00DA11DC1
:100FC000661F829F2227B00DA11D621F739FB00D67
:100FD000A11D621F839FA00D611D221F749F3327D7
:100FE000A00D611D231F849F600D211D822F762F70
:100FF0006A2F11249F5750409AF0F1F088234AF04D
:10100000EE0FFF1FBB1F661F771F881F91505040B8
:10101000A9F79E3F510580F00C9465070C94B0072A
:101020005F3FE4F3983ED4F3869577956795B7953F
:10103000F795E7959F5FC1F7FE2B880F911D969559
:10104000879597F90895AA1BBB1B51E107C0AA1FFA
:10105000BB1FA617B70710F0A61BB70B881F991F59
:101060005A95A9F780959095BC01CD010895EE0F92
:0E107000FF1F0590F491E02D0994F894FFCF36
:10107E007901B3010000E0400000104100000000C3
:10108E00AB01CF000201F8017D0111016F010E0FBE
:06109E00101112131415DD
:00000001FF
