:100000000C945D000C9485000C9485000C94850084
:100010000C9485000C9485000C9485000C9485004C
:100020000C9485000C9485000C9485000C9485003C
:100030000C9485000C9485000C9485000C9485002C
:100040000C94DC030C9485000C94AA030C94840398
:100050000C9485000C9485000C9485000C9485000C
:100060000C9485000C9485000000000024002700FB
:100070002A0000000000250028002B0004040404CE
:100080000404040402020202020203030303030342
:10009000010204081020408001020408102001021F
:1000A00004081020000000080002010000030407FB
:1000B0000000000000000000FE0511241FBECFEF6D
:1000C000D8E0DEBFCDBF11E0A0E0B1E0E4E7F0E1B1
:1000D00002C005900D92A632B107D9F722E0A6E240
:1000E000B1E001C01D92AC30B207E1F710E0CDE500
:1000F000D0E004C02197FE010E943208CC35D10720
:10010000C9F70E9426040C942B060C940000E1EB26
:10011000F0E02491EDE9F0E09491E9E8F0E0E49179
:10012000EE23C9F0222339F0233001F1A8F4213065
:1001300019F1223029F1F0E0EE0FFF1FEE58FF4FCA
:10014000A591B4912FB7F894EC91811126C09095A8
:100150009E239C932FBF08952730A9F02830C9F023
:10016000243049F7209180002F7D03C0209180002A
:100170002F7720938000DFCF24B52F7724BDDBCFEE
:1001800024B52F7DFBCF2091B0002F772093B000B6
:10019000D2CF2091B0002F7DF9CF9E2BDACFAF9236
:1001A000BF92CF92DF92EF92FF920F931F93CF9364
:1001B000DF936C017B018B01040F151FEB015E01C6
:1001C000AE18BF08C017D10759F06991D601ED915B
:1001D000FC910190F081E02DC6010995892B79F7FA
:1001E000C501DF91CF911F910F91FF90EF90DF90AC
:1001F000CF90BF90AF900895AB01BC018FE691E026
:100200000C94CF00FC01538D448D252F30E0842FBA
:1002100090E0821B930B541710F0CF96089501972E
:100220000895FC01918D828D981761F0A28DAE0F1B
:10023000BF2FB11D5D968C91928D9F5F9F73928FA2
:1002400090E008958FEF9FEF0895AF92BF92CF9205
:10025000DF92EF92FF920F931F93CF93DF938C0166
:100260005B018FB7F894C0902B01D0902C01E090E7
:100270002D01F0902E018FBF88EEC80E83E0D81EAE
:10028000E11CF11CD0E0C0E08FE691E00E9411017A
:100290008F3FA1F0F801EC0FFD1F80832196CA1556
:1002A000DB0590F3CE01DF91CF911F910F91FF906D
:1002B000EF90DF90CF90BF90AF9008952FB7F89454
:1002C00080912B0190912C01A0912D01B0912E01D4
:1002D0002FBFC816D906EA06FB0608F7E3CFFC01D4
:1002E000918D828D981731F0828DE80FF11D858DEB
:1002F00090E008958FEF9FEF0895FC01918D228D7E
:10030000892F90E0805C9F4F821B91098F73992702
:1003100008958FE691E00E947D0121E0892B09F488
:1003200020E0822F089580E090E0892B29F00E9440
:10033000890181110C9400000895FC01A48DA80F7F
:10034000B92FB11DA35ABF4F2C91848D90E0019617
:100350008F739927848FA689B7892C93A089B18937
:100360008C91837080648C93938D848D981306C0D8
:100370000288F389E02D80818F7D80830895EF923C
:10038000FF920F931F93CF93DF93EC0181E0888F4F
:100390009B8D8C8D98131AC0E889F989808185FF1F
:1003A00015C09FB7F894EE89FF896083E889F989C1
:1003B00080818370806480839FBF81E090E0DF91C3
:1003C000CF911F910F91FF90EF900895F62E0B8D16
:1003D00010E00F5F1F4F0F731127E02E8C8D8E11D1
:1003E0000CC00FB607FCFACFE889F989808185FF38
:1003F000F5CFCE010E949D01F1CFEB8DEC0FFD2FCB
:10040000F11DE35AFF4FF0829FB7F8940B8FEA89F2
:10041000FB8980818062CFCFCF93DF93EC01888D01
:100420008823B9F0AA89BB89E889F9898C9185FD6F
:1004300003C0808186FD0DC00FB607FCF7CF8C91FD
:1004400085FFF2CF808185FFEDCFCE010E949D0117
:10045000E9CFDF91CF9108953FB7F89480912701BC
:1004600090912801A0912901B0912A0126B5A89B5D
:1004700005C02F3F19F00196A11DB11D3FBFBA2F36
:10048000A92F982F8827BC01CD01620F711D811DF6
:10049000911D42E0660F771F881F991F4A95D1F77B
:1004A00008958F929F92AF92BF92CF92DF92EF9278
:1004B000FF926B017C010E942C024B015C01C11474
:1004C000D104E104F104B9F00E942C026819790901
:1004D0008A099B09683E73408105910580F321E0FC
:1004E000C21AD108E108F10888EE880E83E0981E50
:1004F000A11CB11CE4CFFF90EF90DF90CF90BF9094
:10050000AF909F908F9008958E3008F08E50877036
:10051000806480937C0080917A00806480937A006C
:1005200080917A0086FDFCCF8091780090917900CF
:100530000895CF92DF92EF92FF920F931F93CF9384
:10054000DF93EB017B012CE0E20EF11C8B016C01CF
:10055000C61AD70AC601800F911F0E942E06F80105
:1005600081938F01EE15FF05A9F7CE01DF91CF91A1
:100570001F910F91FF90EF90DF90CF9008954F92D1
:100580005F926F927F928F929F92AF92BF92CF9223
:10059000DF92EF92FF920F931F93CF93DF93CDB72C
:1005A000DEB72C970FB6F894DEBF0FBECDBF8CE040
:1005B000E0E0F1E0DE01119601900D928A95E1F7FD
:1005C0008FE2C82E81E0D82E10E000E0BE016F5F00
:1005D0007F4FC8010E94990289849A84AB84BC84AD
:1005E000EB80FC802D813E814F815885C501B4018F
:1005F0000E9444062B013C0189819A81B701681B46
:10060000790B90E080E00E9423079B01AC01C301BD
:10061000B2010E94B1062B013C01F60141925192B8
:10062000619271926F01B70190E080E00E94230710
:10063000A30192010E94B1079B01AC01C501B40165
:100640000E944406F601648F758F868F978F045F32
:100650001F4F0036110509F0B9CF2C960FB6F8944C
:10066000DEBF0FBECDBFDF91CF911F910F91FF90E5
:10067000EF90DF90CF90BF90AF909F908F907F9042
:100680006F905F904F9008950F931F93CF93DF93D8
:10069000CDB7DEB760970FB6F894DEBF0FBECDBF03
:1006A0008C018CE0E0E0F1E0DE01119601900D920A
:1006B0008A95E1F7BE016F5F7F4F8CE0282F209F66
:1006C000C001219F900D11240E9499028AE19FEEA2
:1006D0009E878D8785E18F87088B64E070E0CE016F
:1006E0000D960E94FC006CE070E0CE0101960E9425
:1006F000FC0060960FB6F894DEBF0FBECDBFDF9151
:10070000CF911F910F9108951F920F920FB60F92E4
:1007100011242F933F934F935F936F937F938F9306
:100720009F93AF93BF93EF93FF938FE691E00E9467
:100730009D01FF91EF91BF91AF919F918F917F911B
:100740006F915F914F913F912F910F900FBE0F903E
:100750001F9018951F920F920FB60F9211242F938E
:100760008F939F93EF93FF93E0917F01F09180012E
:100770008081E0918501F091860182FD1BC090810E
:10078000809188018F5F8F7320918901821741F0DA
:10079000E0918801F0E0E159FE4F958F8093880148
:1007A000FF91EF919F918F912F910F900FBE0F901E
:1007B0001F9018958081F4CF1F920F920FB60F9261
:1007C00011242F933F938F939F93AF93BF93809167
:1007D0002B0190912C01A0912D01B0912E0130910F
:1007E000260123E0230F2D3758F50196A11DB11DD9
:1007F0002093260180932B0190932C01A0932D012F
:10080000B0932E018091270190912801A091290198
:10081000B0912A010196A11DB11D809327019093EB
:100820002801A0932901B0932A01BF91AF919F9114
:100830008F913F912F910F900FBE0F901F901895A1
:1008400026E8230F0296A11DB11DD2CFCF93DF93CF
:10085000CDB7DEB766970FB6F894DEBF0FBECDBF3B
:10086000789484B5826084BD84B5816084BD85B58B
:10087000826085BD85B5816085BD80916E00816097
:1008800080936E001092810080918100826080933D
:10089000810080918100816080938100809180003F
:1008A0008160809380008091B10084608093B1006A
:1008B0008091B00081608093B00080917A00846064
:1008C00080937A0080917A00826080937A00809190
:1008D0007A00816080937A0080917A0080688093AA
:1008E0007A001092C100E0917F01F091800182E0D6
:1008F0008083E0917F01F09180011082E0917B0183
:10090000F0917C011082E0917D01F0917E0180E107
:10091000808310928701E0918301F091840186E049
:100920008083E0918101F0918201808180618083E8
:10093000E0918101F0918201808188608083E09163
:100940008101F0918201808180688083E091810142
:10095000F091820180818F7D80830E94BF028FE6AB
:1009600091E00E940C02EDE9F0E02491E9E8F0E06A
:100970008491882399F090E0880F991FFC01E85931
:10098000FF4FA591B491FC01EE58FF4F85919491D2
:100990008FB7F894EC91E22BEC938FBF6EE1462E6B
:1009A000512C5AE1E52E5FEEF52E40E0642E40E03A
:1009B000742EFA8AE98A1B8A1C8A8FE691E00E94CB
:1009C0007D01892B09F164E070E0CE0141960E941F
:1009D00025010497F9F489899A898A319F4ED1F4C7
:1009E00081E00E94870064E670E080E090E00E9471
:1009F000510280E00E9487008B89843109F4C0C0D5
:100A00009CF4823109F467C064E670E080E090E015
:100A10000E9451026114710461F20E9489018823CD
:100A200021F20E940000BDCF863109F4B0C08731A9
:100A300059F7BC88CB2C0B2C000CDD0819821A82CC
:100A40001B821C821E821D8285E190E0F8E0CF1699
:100A5000D10438F4F601E25EFE4F8081082E000CCE
:100A6000990B0E9484029E838D838601000F111FC3
:100A7000000F111F015D1E4FBC0190E080E00E943D
:100A80002307F80120813181428153810E94B107FF
:100A9000F601EE0FFF1FEE0FFF1FE15BFE4F2081FF
:100AA0003181428153810E94450669837A838B8319
:100AB0009C83FE86ED86F8E1FF87B88A64E070E0EB
:100AC000CE010D960E94FC0066E070E0CE0101961A
:100AD0000E94FC0099CF3C8881E00E9487005E8ADA
:100AE0004D8A1E861D8662E070E0CE0145960E940A
:100AF0002501029709F088CFD12CC12C10E000E02D
:100B0000A32C032C000CBB08C501825E9E4F4C0138
:100B10006D897E89C616D706CCF485E190E098E011
:100B2000A916B10428F4F4018081082E000C990B59
:100B30000E948402080F191F68EE73E080E090E0C5
:100B40000E945102FFEFCF1ADF0AE2CFFA82E98258
:100B500023E12B833C82C8010E941E087E876D879B
:100B600064E070E0CE0101960E94FC0062E070E05B
:100B7000CE010D960E94FC0080E00E94870044CFC9
:100B80008C89082E000C990B0E9444033DCF3C88B1
:100B90008CE0E0E0F1E0DE01119601900D928A9583
:100BA000E1F76CE070E0CE0101960E9425010C9700
:100BB00009F02ACF832D9CE0890240011124FE0117
:100BC00031966F0110E000E0F60121906F015401B1
:100BD000A00EB11EC5010E942E06281621F0622D1E
:100BE000C5010E9436060F5F1F4F0C30110561F7DB
:100BF0000E94BF02832D330C990BC6CFEFE6F1E0C4
:100C00001382128288EE93E0A0E0B0E084839583A3
:100C1000A683B78380E191E09183808385EC90E0A7
:100C20009587848784EC90E09787868780EC90E0B6
:100C3000918B808B81EC90E0938B828B82EC90E0A7
:100C4000958B848B86EC90E0978B868B118E128E21
:100C5000138E148E0895F8940C943808F999FECFE9
:100C600092BD81BDF89A992780B50895262FF999EC
:100C7000FECF1FBA92BD81BD20BD0FB6F894FA9A7F
:100C8000F99A0FBE019608955058BB27AA270E94D3
:100C90005C060C9477070E94690738F00E94700781
:100CA00020F039F49F3F19F426F40C9466070EF4F3
:100CB000E095E7FB0C946007E92F0E94880758F342
:100CC000BA17620773078407950720F079F4A6F531
:100CD0000C94AA070EF4E0950B2EBA2FA02D0B0151
:100CE000B90190010C01CA01A0011124FF27591B71
:100CF00099F0593F50F4503E68F11A16F040A22F77
:100D0000232F342F4427585FF3CF469537952795E7
:100D1000A795F0405395C9F77EF41F16BA0B620BE6
:100D2000730B840BBAF09150A1F0FF0FBB1F661F2D
:100D3000771F881FC2F70EC0BA0F621F731F841F70
:100D400048F4879577956795B795F7959E3F08F096
:100D5000B0CF9395880F08F09927EE0F9795879558
:100D600008950E94C5060C9477070E94700758F0FA
:100D70000E94690740F029F45F3F29F00C94600756
:100D800051110C94AB070C9466070E94880768F316
:100D90009923B1F3552391F3951B550BBB27AA2734
:100DA00062177307840738F09F5F5F4F220F331F6E
:100DB000441FAA1FA9F335D00E2E3AF0E0E832D036
:100DC00091505040E695001CCAF72BD0FE2F29D039
:100DD000660F771F881FBB1F261737074807AB070B
:100DE000B0E809F0BB0B802DBF01FF2793585F4F80
:100DF0003AF09E3F510578F00C9460070C94AB07D5
:100E00005F3FE4F3983ED4F3869577956795B79561
:100E1000F7959F5FC9F7880F911D9695879597F96C
:100E20000895E1E0660F771F881FBB1F62177307E5
:100E30008407BA0720F0621B730B840BBA0BEE1FFA
:100E400088F7E0950895E89409C097FB3EF49095E3
:100E50008095709561957F4F8F4F9F4F9923A9F093
:100E6000F92F96E9BB279395F69587957795679522
:100E7000B795F111F8CFFAF4BB0F11F460FF1BC066
:100E80006F5F7F4F8F4F9F4F16C0882311F096E9F9
:100E900011C0772321F09EE8872F762F05C06623A7
:100EA00071F096E8862F70E060E02AF09A95660F60
:100EB000771F881FDAF7880F9695879597F9089519
:100EC00097F99F6780E870E060E008959FEF80ECFD
:100ED000089500240A9416161706180609060895A0
:100EE00000240A9412161306140605060895092E06
:100EF0000394000C11F4882352F0BB0F40F4BF2B75
:100F000011F460FF04C06F5F7F4F8F4F9F4F0895B4
:100F100057FD9058440F551F59F05F3F71F04795AA
:100F2000880F97FB991F61F09F3F79F0879508958F
:100F3000121613061406551FF2CF4695F1DF08C0AE
:100F4000161617061806991FF1CF869571056105CB
:100F500008940895E894BB2766277727CB0197F973
:100F600008950E94C4070C9477070E94690738F01F
:100F70000E94700720F0952311F00C9460070C94E8
:100F8000660711240C94AB070E94880770F3959FA5
:100F9000C1F3950F50E0551F629FF001729FBB2770
:100FA000F00DB11D639FAA27F00DB11DAA1F649F0C
:100FB0006627B00DA11D661F829F2227B00DA11DBF
:100FC000621F739FB00DA11D621F839FA00D611D45
:100FD000221F749F3327A00D611D231F849F600D66
:100FE000211D822F762F6A2F11249F5750409AF08F
:100FF000F1F088234AF0EE0FFF1FBB1F661F771F1B
:10100000881F91505040A9F79E3F510580F00C94E5
:1010100060070C94AB075F3FE4F3983ED4F38695EA
:1010200077956795B795F795E7959F5FC1F7FE2B85
:10103000880F911D9695879597F90895AA1BBB1B5C
:1010400051E107C0AA1FBB1FA617B70710F0A61BC8
:10105000B70B881F991F5A95A9F780959095BC01E9
:10106000CD010895EE0FFF1F0590F491E02D099436
:04107000F894FFCF22
:101074007901B3010000E0400000104100000000CD
:10108400BF01CF0002010C027D0111016F010E0F9F
:06109400101112131415E7
:00000001FF
